{
  "_format": "hh-sol-artifact-1",
  "contractName": "TournamentRankings",
  "sourceName": "contracts/TournamentRankings.sol",
  "abi": [
    {
      "inputs": [],
      "stateMutability": "nonpayable",
      "type": "constructor"
    },
    {
      "anonymous": false,
      "inputs": [
        {
          "indexed": true,
          "internalType": "uint256",
          "name": "tournamentId",
          "type": "uint256"
        },
        {
          "indexed": true,
          "internalType": "address",
          "name": "player",
          "type": "address"
        },
        {
          "indexed": false,
          "internalType": "uint256",
          "name": "rank",
          "type": "uint256"
        }
      ],
      "name": "RankRecorded",
      "type": "event"
    },
    {
      "inputs": [
        {
          "internalType": "uint256",
          "name": "tournamentId",
          "type": "uint256"
        },
        {
          "internalType": "address",
          "name": "player",
          "type": "address"
        }
      ],
      "name": "getRank",
      "outputs": [
        {
          "internalType": "uint256",
          "name": "",
          "type": "uint256"
        }
      ],
      "stateMutability": "view",
      "type": "function"
    },
    {
      "inputs": [],
      "name": "owner",
      "outputs": [
        {
          "internalType": "address",
          "name": "",
          "type": "address"
        }
      ],
      "stateMutability": "view",
      "type": "function"
    },
    {
      "inputs": [
        {
          "internalType": "uint256",
          "name": "tournamentId",
          "type": "uint256"
        },
        {
          "internalType": "address",
          "name": "player",
          "type": "address"
        },
        {
          "internalType": "uint256",
          "name": "rank",
          "type": "uint256"
        }
      ],
      "name": "recordRank",
      "outputs": [],
      "stateMutability": "nonpayable",
      "type": "function"
    }
  ],
  "bytecode": "0x60a060405234801561001057600080fd5b503373ffffffffffffffffffffffffffffffffffffffff1660808173ffffffffffffffffffffffffffffffffffffffff16815250506080516107426100666000396000818160b2015261033701526107426000f3fe608060405234801561001057600080fd5b50600436106100415760003560e01c80632ad4d35c1461004657806387463b83146100625780638da5cb5b14610092575b600080fd5b610060600480360381019061005b91906103f2565b6100b0565b005b61007c60048036038101906100779190610445565b6102db565b6040516100899190610494565b60405180910390f35b61009a610335565b6040516100a791906104be565b60405180910390f35b7f000000000000000000000000000000000000000000000000000000000000000073ffffffffffffffffffffffffffffffffffffffff163373ffffffffffffffffffffffffffffffffffffffff161461013e576040517f08c379a00000000000000000000000000000000000000000000000000000000081526004016101359061055c565b60405180910390fd5b60008303610181576040517f08c379a0000000000000000000000000000000000000000000000000000000008152600401610178906105ee565b60405180910390fd5b600073ffffffffffffffffffffffffffffffffffffffff168273ffffffffffffffffffffffffffffffffffffffff16036101f0576040517f08c379a00000000000000000000000000000000000000000000000000000000081526004016101e790610680565b60405180910390fd5b60008103610233576040517f08c379a000000000000000000000000000000000000000000000000000000000815260040161022a906106ec565b60405180910390fd5b8060008085815260200190815260200160002060008473ffffffffffffffffffffffffffffffffffffffff1673ffffffffffffffffffffffffffffffffffffffff168152602001908152602001600020819055508173ffffffffffffffffffffffffffffffffffffffff16837fb6ca704fe502ad1f8e3b456a27dec69dcfaf91765a4cb1ababc20cdff9627d42836040516102ce9190610494565b60405180910390a3505050565b600080600084815260200190815260200160002060008373ffffffffffffffffffffffffffffffffffffffff1673ffffffffffffffffffffffffffffffffffffffff16815260200190815260200160002054905092915050565b7f000000000000000000000000000000000000000000000000000000000000000081565b600080fd5b6000819050919050565b6103718161035e565b811461037c57600080fd5b50565b60008135905061038e81610368565b92915050565b600073ffffffffffffffffffffffffffffffffffffffff82169050919050565b60006103bf82610394565b9050919050565b6103cf816103b4565b81146103da57600080fd5b50565b6000813590506103ec816103c6565b92915050565b60008060006060848603121561040b5761040a610359565b5b60006104198682870161037f565b935050602061042a868287016103dd565b925050604061043b8682870161037f565b9150509250925092565b6000806040838503121561045c5761045b610359565b5b600061046a8582860161037f565b925050602061047b858286016103dd565b9150509250929050565b61048e8161035e565b82525050565b60006020820190506104a96000830184610485565b92915050565b6104b8816103b4565b82525050565b60006020820190506104d360008301846104af565b92915050565b600082825260208201905092915050565b7f546f75726e616d656e7452616e6b696e67733a2063616c6c6572206973206e6f60008201527f7420746865206f776e6572000000000000000000000000000000000000000000602082015250565b6000610546602b836104d9565b9150610551826104ea565b604082019050919050565b6000602082019050818103600083015261057581610539565b9050919050565b7f546f75726e616d656e7452616e6b696e67733a20696e76616c696420746f757260008201527f6e616d656e742049440000000000000000000000000000000000000000000000602082015250565b60006105d86029836104d9565b91506105e38261057c565b604082019050919050565b60006020820190508181036000830152610607816105cb565b9050919050565b7f546f75726e616d656e7452616e6b696e67733a20696e76616c696420706c617960008201527f6572206164647265737300000000000000000000000000000000000000000000602082015250565b600061066a602a836104d9565b91506106758261060e565b604082019050919050565b600060208201905081810360008301526106998161065d565b9050919050565b7f546f75726e616d656e7452616e6b696e67733a20696e76616c69642072616e6b600082015250565b60006106d66020836104d9565b91506106e1826106a0565b602082019050919050565b60006020820190508181036000830152610705816106c9565b905091905056fea26469706673582212202b6534f251789cd378d64f39312e301a851ed76ff975eb339b9f276a49b588e864736f6c63430008140033",
  "linkReferences": {},
  "deployedLinkReferences": {}
}