{
  "_format": "hh-sol-artifact-1",
  "contractName": "TournamentRankings",
  "sourceName": "contracts/TournamentRankings.sol",
  "abi": [
    {
      "inputs": [],
      "stateMutability": "nonpayable",
      "type": "constructor"
    },
    {
      "anonymous": false,
      "inputs": [
        {
          "indexed": true,
          "internalType": "uint256",
          "name": "tournamentId",
          "type": "uint256"
        },
        {
          "indexed": true,
          "internalType": "uint256",
          "name": "player",
          "type": "uint256"
        },
        {
          "indexed": false,
          "internalType": "uint256",
          "name": "rank",
          "type": "uint256"
        }
      ],
      "name": "RankRecorded",
      "type": "event"
    },
    {
      "inputs": [],
      "name": "owner",
      "outputs": [
        {
          "internalType": "address",
          "name": "",
          "type": "address"
        }
      ],
      "stateMutability": "view",
      "type": "function"
    },
    {
      "inputs": [
        {
          "internalType": "uint256",
          "name": "tournamentId",
          "type": "uint256"
        },
        {
          "internalType": "uint256[]",
          "name": "players",
          "type": "uint256[]"
        },
        {
          "internalType": "uint256[]",
          "name": "ranks",
          "type": "uint256[]"
        }
      ],
      "name": "recordRanks",
      "outputs": [],
      "stateMutability": "nonpayable",
      "type": "function"
    },
    {
      "inputs": [
        {
          "internalType": "uint256",
          "name": "tournamentId",
          "type": "uint256"
        },
        {
          "internalType": "uint256",
          "name": "player",
          "type": "uint256"
        }
      ],
      "name": "tournamentRankings",
      "outputs": [
        {
          "internalType": "uint256",
          "name": "rank",
          "type": "uint256"
        }
      ],
      "stateMutability": "view",
      "type": "function"
    }
  ],
  "bytecode": "0x60a060405234801561001057600080fd5b503373ffffffffffffffffffffffffffffffffffffffff1660808173ffffffffffffffffffffffffffffffffffffffff16815250506080516106826100656000396000818160b2015260fb01526106826000f3fe608060405234801561001057600080fd5b50600436106100415760003560e01c80638da5cb5b1461004657806391ed787714610064578063ed117a1614610094575b600080fd5b61004e6100b0565b60405161005b91906102d8565b60405180910390f35b61007e60048036038101906100799190610333565b6100d4565b60405161008b9190610382565b60405180910390f35b6100ae60048036038101906100a99190610402565b6100f9565b005b7f000000000000000000000000000000000000000000000000000000000000000081565b6000602052816000526040600020602052806000526040600020600091509150505481565b7f000000000000000000000000000000000000000000000000000000000000000073ffffffffffffffffffffffffffffffffffffffff163373ffffffffffffffffffffffffffffffffffffffff1614610187576040517f08c379a000000000000000000000000000000000000000000000000000000000815260040161017e906104f4565b60405180910390fd5b8181905084849050146101cf576040517f08c379a00000000000000000000000000000000000000000000000000000000081526004016101c690610586565b60405180910390fd5b60005b8484905081101561028f5760008585838181106101f2576101f16105a6565b5b90506020020135905060008484848181106102105761020f6105a6565b5b905060200201359050806000808a815260200190815260200160002060008481526020019081526020016000208190555081887f5aa5136600a03898ff3370f9c94baec2508e72951011c5a06344ef35274a5937836040516102729190610382565b60405180910390a35050808061028790610604565b9150506101d2565b505050505050565b600073ffffffffffffffffffffffffffffffffffffffff82169050919050565b60006102c282610297565b9050919050565b6102d2816102b7565b82525050565b60006020820190506102ed60008301846102c9565b92915050565b600080fd5b600080fd5b6000819050919050565b610310816102fd565b811461031b57600080fd5b50565b60008135905061032d81610307565b92915050565b6000806040838503121561034a576103496102f3565b5b60006103588582860161031e565b92505060206103698582860161031e565b9150509250929050565b61037c816102fd565b82525050565b60006020820190506103976000830184610373565b92915050565b600080fd5b600080fd5b600080fd5b60008083601f8401126103c2576103c161039d565b5b8235905067ffffffffffffffff8111156103df576103de6103a2565b5b6020830191508360208202830111156103fb576103fa6103a7565b5b9250929050565b60008060008060006060868803121561041e5761041d6102f3565b5b600061042c8882890161031e565b955050602086013567ffffffffffffffff81111561044d5761044c6102f8565b5b610459888289016103ac565b9450945050604086013567ffffffffffffffff81111561047c5761047b6102f8565b5b610488888289016103ac565b92509250509295509295909350565b600082825260208201905092915050565b7f4e6f7420617574686f72697a6564000000000000000000000000000000000000600082015250565b60006104de600e83610497565b91506104e9826104a8565b602082019050919050565b6000602082019050818103600083015261050d816104d1565b9050919050565b7f506c617965727320616e642072616e6b73206c656e677468206d69736d61746360008201527f6800000000000000000000000000000000000000000000000000000000000000602082015250565b6000610570602183610497565b915061057b82610514565b604082019050919050565b6000602082019050818103600083015261059f81610563565b9050919050565b7f4e487b7100000000000000000000000000000000000000000000000000000000600052603260045260246000fd5b7f4e487b7100000000000000000000000000000000000000000000000000000000600052601160045260246000fd5b600061060f826102fd565b91507fffffffffffffffffffffffffffffffffffffffffffffffffffffffffffffffff8203610641576106406105d5565b5b60018201905091905056fea26469706673582212207eca74a8f600909676606394ef4a59ac769117d1bb28f3dd748bd91802a29ac364736f6c63430008140033",
  "linkReferences": {},
  "deployedLinkReferences": {}
}