{
  "_format": "hh-sol-artifact-1",
  "contractName": "TournamentRankings",
  "sourceName": "contracts/TournamentRankings.sol",
  "abi": [
    {
      "inputs": [],
      "stateMutability": "nonpayable",
      "type": "constructor"
    },
    {
      "anonymous": false,
      "inputs": [
        {
          "indexed": true,
          "internalType": "uint256",
          "name": "tournamentId",
          "type": "uint256"
        },
        {
          "indexed": true,
          "internalType": "uint256",
          "name": "player",
          "type": "uint256"
        },
        {
          "indexed": false,
          "internalType": "uint256",
          "name": "rank",
          "type": "uint256"
        }
      ],
      "name": "RankRecorded",
      "type": "event"
    },
    {
      "inputs": [
        {
          "internalType": "uint256",
          "name": "tournamentId",
          "type": "uint256"
        },
        {
          "internalType": "uint256",
          "name": "player",
          "type": "uint256"
        }
      ],
      "name": "getRank",
      "outputs": [
        {
          "internalType": "uint256",
          "name": "",
          "type": "uint256"
        }
      ],
      "stateMutability": "view",
      "type": "function"
    },
    {
      "inputs": [],
      "name": "owner",
      "outputs": [
        {
          "internalType": "address",
          "name": "",
          "type": "address"
        }
      ],
      "stateMutability": "view",
      "type": "function"
    },
    {
      "inputs": [
        {
          "internalType": "uint256",
          "name": "tournamentId",
          "type": "uint256"
        },
        {
          "internalType": "uint256",
          "name": "player",
          "type": "uint256"
        },
        {
          "internalType": "uint256",
          "name": "rank",
          "type": "uint256"
        }
      ],
      "name": "recordRank",
      "outputs": [],
      "stateMutability": "nonpayable",
      "type": "function"
    },
    {
      "inputs": [
        {
          "internalType": "uint256",
          "name": "tournamentId",
          "type": "uint256"
        },
        {
          "internalType": "uint256",
          "name": "player",
          "type": "uint256"
        }
      ],
      "name": "tournamentRankings",
      "outputs": [
        {
          "internalType": "uint256",
          "name": "rank",
          "type": "uint256"
        }
      ],
      "stateMutability": "view",
      "type": "function"
    }
  ],
  "bytecode": "0x60a060405234801561001057600080fd5b503373ffffffffffffffffffffffffffffffffffffffff1660808173ffffffffffffffffffffffffffffffffffffffff168152505060805161045d6100676000396000818161011b0152610164015261045d6000f3fe608060405234801561001057600080fd5b506004361061004c5760003560e01c806357e10ace146100515780638da5cb5b1461008157806391ed78771461009f578063fe189f7b146100cf575b600080fd5b61006b60048036038101906100669190610291565b6100eb565b60405161007891906102e0565b60405180910390f35b610089610119565b604051610096919061033c565b60405180910390f35b6100b960048036038101906100b49190610291565b61013d565b6040516100c691906102e0565b60405180910390f35b6100e960048036038101906100e49190610357565b610162565b005b6000806000848152602001908152602001600020600083815260200190815260200160002054905092915050565b7f000000000000000000000000000000000000000000000000000000000000000081565b6000602052816000526040600020602052806000526040600020600091509150505481565b7f000000000000000000000000000000000000000000000000000000000000000073ffffffffffffffffffffffffffffffffffffffff163373ffffffffffffffffffffffffffffffffffffffff16146101f0576040517f08c379a00000000000000000000000000000000000000000000000000000000081526004016101e790610407565b60405180910390fd5b8060008085815260200190815260200160002060008481526020019081526020016000208190555081837f5aa5136600a03898ff3370f9c94baec2508e72951011c5a06344ef35274a59378360405161024991906102e0565b60405180910390a3505050565b600080fd5b6000819050919050565b61026e8161025b565b811461027957600080fd5b50565b60008135905061028b81610265565b92915050565b600080604083850312156102a8576102a7610256565b5b60006102b68582860161027c565b92505060206102c78582860161027c565b9150509250929050565b6102da8161025b565b82525050565b60006020820190506102f560008301846102d1565b92915050565b600073ffffffffffffffffffffffffffffffffffffffff82169050919050565b6000610326826102fb565b9050919050565b6103368161031b565b82525050565b6000602082019050610351600083018461032d565b92915050565b6000806000606084860312156103705761036f610256565b5b600061037e8682870161027c565b935050602061038f8682870161027c565b92505060406103a08682870161027c565b9150509250925092565b600082825260208201905092915050565b7f4e6f7420617574686f72697a6564000000000000000000000000000000000000600082015250565b60006103f1600e836103aa565b91506103fc826103bb565b602082019050919050565b60006020820190508181036000830152610420816103e4565b905091905056fea2646970667358221220738399bc3b3d7c6180132e08b1d970b62cf640af33cd85de72d96bcaad4c833d64736f6c63430008140033",
  "linkReferences": {},
  "deployedLinkReferences": {}
}