{
  "_format": "hh-sol-artifact-1",
  "contractName": "TournamentRankings",
  "sourceName": "contracts/TournamentRankings.sol",
  "abi": [
    {
      "inputs": [],
      "stateMutability": "nonpayable",
      "type": "constructor"
    },
    {
      "anonymous": false,
      "inputs": [
        {
          "indexed": true,
          "internalType": "uint256",
          "name": "tournamentId",
          "type": "uint256"
        },
        {
          "indexed": true,
          "internalType": "uint256",
          "name": "player",
          "type": "uint256"
        },
        {
          "indexed": false,
          "internalType": "uint256",
          "name": "rank",
          "type": "uint256"
        }
      ],
      "name": "RankRecorded",
      "type": "event"
    },
    {
      "inputs": [],
      "name": "owner",
      "outputs": [
        {
          "internalType": "address",
          "name": "",
          "type": "address"
        }
      ],
      "stateMutability": "view",
      "type": "function"
    },
    {
      "inputs": [
        {
          "internalType": "uint256",
          "name": "tournamentId",
          "type": "uint256"
        },
        {
          "internalType": "uint256",
          "name": "player",
          "type": "uint256"
        },
        {
          "internalType": "uint256",
          "name": "rank",
          "type": "uint256"
        }
      ],
      "name": "recordRank",
      "outputs": [],
      "stateMutability": "nonpayable",
      "type": "function"
    },
    {
      "inputs": [
        {
          "internalType": "uint256",
          "name": "tournamentId",
          "type": "uint256"
        },
        {
          "internalType": "uint256",
          "name": "player",
          "type": "uint256"
        }
      ],
      "name": "tournamentRankings",
      "outputs": [
        {
          "internalType": "uint256",
          "name": "rank",
          "type": "uint256"
        }
      ],
      "stateMutability": "view",
      "type": "function"
    }
  ],
  "bytecode": "0x60a060405234801561001057600080fd5b503373ffffffffffffffffffffffffffffffffffffffff1660808173ffffffffffffffffffffffffffffffffffffffff16815250506080516103f46100656000396000818160b2015260fb01526103f46000f3fe608060405234801561001057600080fd5b50600436106100415760003560e01c80638da5cb5b1461004657806391ed787714610064578063fe189f7b14610094575b600080fd5b61004e6100b0565b60405161005b919061022e565b60405180910390f35b61007e60048036038101906100799190610284565b6100d4565b60405161008b91906102d3565b60405180910390f35b6100ae60048036038101906100a991906102ee565b6100f9565b005b7f000000000000000000000000000000000000000000000000000000000000000081565b6000602052816000526040600020602052806000526040600020600091509150505481565b7f000000000000000000000000000000000000000000000000000000000000000073ffffffffffffffffffffffffffffffffffffffff163373ffffffffffffffffffffffffffffffffffffffff1614610187576040517f08c379a000000000000000000000000000000000000000000000000000000000815260040161017e9061039e565b60405180910390fd5b8060008085815260200190815260200160002060008481526020019081526020016000208190555081837f5aa5136600a03898ff3370f9c94baec2508e72951011c5a06344ef35274a5937836040516101e091906102d3565b60405180910390a3505050565b600073ffffffffffffffffffffffffffffffffffffffff82169050919050565b6000610218826101ed565b9050919050565b6102288161020d565b82525050565b6000602082019050610243600083018461021f565b92915050565b600080fd5b6000819050919050565b6102618161024e565b811461026c57600080fd5b50565b60008135905061027e81610258565b92915050565b6000806040838503121561029b5761029a610249565b5b60006102a98582860161026f565b92505060206102ba8582860161026f565b9150509250929050565b6102cd8161024e565b82525050565b60006020820190506102e860008301846102c4565b92915050565b60008060006060848603121561030757610306610249565b5b60006103158682870161026f565b93505060206103268682870161026f565b92505060406103378682870161026f565b9150509250925092565b600082825260208201905092915050565b7f4e6f7420617574686f72697a6564000000000000000000000000000000000000600082015250565b6000610388600e83610341565b915061039382610352565b602082019050919050565b600060208201905081810360008301526103b78161037b565b905091905056fea26469706673582212204bb5e29236552769730c3a538f43669bfef13bb87f2b38ccf1d68383afc2553c64736f6c63430008140033",
  "linkReferences": {},
  "deployedLinkReferences": {}
}