{
  "_format": "hh-sol-artifact-1",
  "contractName": "TournamentRankings",
  "sourceName": "contracts/TournamentRankings.sol",
  "abi": [
    {
      "inputs": [],
      "stateMutability": "nonpayable",
      "type": "constructor"
    },
    {
      "anonymous": false,
      "inputs": [
        {
          "indexed": true,
          "internalType": "uint256",
          "name": "tournamentId",
          "type": "uint256"
        },
        {
          "indexed": true,
          "internalType": "address",
          "name": "player",
          "type": "address"
        },
        {
          "indexed": false,
          "internalType": "uint256",
          "name": "rank",
          "type": "uint256"
        }
      ],
      "name": "RankRecorded",
      "type": "event"
    },
    {
      "inputs": [
        {
          "internalType": "uint256",
          "name": "tournamentId",
          "type": "uint256"
        },
        {
          "internalType": "address",
          "name": "player",
          "type": "address"
        }
      ],
      "name": "getRank",
      "outputs": [
        {
          "internalType": "uint256",
          "name": "",
          "type": "uint256"
        }
      ],
      "stateMutability": "view",
      "type": "function"
    },
    {
      "inputs": [],
      "name": "owner",
      "outputs": [
        {
          "internalType": "address",
          "name": "",
          "type": "address"
        }
      ],
      "stateMutability": "view",
      "type": "function"
    },
    {
      "inputs": [
        {
          "internalType": "uint256",
          "name": "tournamentId",
          "type": "uint256"
        },
        {
          "internalType": "address",
          "name": "player",
          "type": "address"
        },
        {
          "internalType": "uint256",
          "name": "rank",
          "type": "uint256"
        }
      ],
      "name": "recordRank",
      "outputs": [],
      "stateMutability": "nonpayable",
      "type": "function"
    },
    {
      "inputs": [
        {
          "internalType": "uint256",
          "name": "tournamentId",
          "type": "uint256"
        },
        {
          "internalType": "address",
          "name": "player",
          "type": "address"
        }
      ],
      "name": "tournamentRankings",
      "outputs": [
        {
          "internalType": "uint256",
          "name": "rank",
          "type": "uint256"
        }
      ],
      "stateMutability": "view",
      "type": "function"
    }
  ],
  "bytecode": "0x60a060405234801561001057600080fd5b503373ffffffffffffffffffffffffffffffffffffffff1660808173ffffffffffffffffffffffffffffffffffffffff16815250506080516104f76100666000396000818160ed01526102a201526104f76000f3fe608060405234801561001057600080fd5b506004361061004c5760003560e01c80632ad4d35c14610051578063586b05ac1461006d57806387463b831461009d5780638da5cb5b146100cd575b600080fd5b61006b6004803603810190610066919061035d565b6100eb565b005b610087600480360381019061008291906103b0565b610221565b60405161009491906103ff565b60405180910390f35b6100b760048036038101906100b291906103b0565b610246565b6040516100c491906103ff565b60405180910390f35b6100d56102a0565b6040516100e29190610429565b60405180910390f35b7f000000000000000000000000000000000000000000000000000000000000000073ffffffffffffffffffffffffffffffffffffffff163373ffffffffffffffffffffffffffffffffffffffff1614610179576040517f08c379a0000000000000000000000000000000000000000000000000000000008152600401610170906104a1565b60405180910390fd5b8060008085815260200190815260200160002060008473ffffffffffffffffffffffffffffffffffffffff1673ffffffffffffffffffffffffffffffffffffffff168152602001908152602001600020819055508173ffffffffffffffffffffffffffffffffffffffff16837fb6ca704fe502ad1f8e3b456a27dec69dcfaf91765a4cb1ababc20cdff9627d428360405161021491906103ff565b60405180910390a3505050565b6000602052816000526040600020602052806000526040600020600091509150505481565b600080600084815260200190815260200160002060008373ffffffffffffffffffffffffffffffffffffffff1673ffffffffffffffffffffffffffffffffffffffff16815260200190815260200160002054905092915050565b7f000000000000000000000000000000000000000000000000000000000000000081565b600080fd5b6000819050919050565b6102dc816102c9565b81146102e757600080fd5b50565b6000813590506102f9816102d3565b92915050565b600073ffffffffffffffffffffffffffffffffffffffff82169050919050565b600061032a826102ff565b9050919050565b61033a8161031f565b811461034557600080fd5b50565b60008135905061035781610331565b92915050565b600080600060608486031215610376576103756102c4565b5b6000610384868287016102ea565b935050602061039586828701610348565b92505060406103a6868287016102ea565b9150509250925092565b600080604083850312156103c7576103c66102c4565b5b60006103d5858286016102ea565b92505060206103e685828601610348565b9150509250929050565b6103f9816102c9565b82525050565b600060208201905061041460008301846103f0565b92915050565b6104238161031f565b82525050565b600060208201905061043e600083018461041a565b92915050565b600082825260208201905092915050565b7f4e6f7420617574686f72697a6564000000000000000000000000000000000000600082015250565b600061048b600e83610444565b915061049682610455565b602082019050919050565b600060208201905081810360008301526104ba8161047e565b905091905056fea2646970667358221220dc577358583eb13c53df951bae3c8cf5381e00fc85502cf9fee3aae6707f29ee64736f6c63430008140033",
  "linkReferences": {},
  "deployedLinkReferences": {}
}